:100000000C945D000C9485000C9485000C94850084
:100010000C9485000C9485000C9485000C9485004C
:100020000C9485000C9485000C9485000C9485003C
:100030000C9485000C9485000C9485000C9485002C
:100040000C9498020C9485000C9445050C9477054B
:100050000C9485000C9485000C9485000C9485000C
:100060000C9485000C94850000000008000201003B
:100070000003040700000000000000000102040863
:100080001020408001020408102001020408102002
:10009000040404040404040402020202020203032E
:1000A0000303030300000000250028002B000000CC
:1000B0000000240027002A00A70511241FBECFEF4F
:1000C000D8E0DEBFCDBF11E0A0E0B1E0EAEEFCE099
:1000D00002C005900D92A233B107D9F721E0A2E347
:1000E000B1E001C01D92AA3DB207E1F710E0CAEBF2
:1000F000D0E004C02297FE010E946F06C83BD107E2
:10010000C9F70E94EB050C9473060C940000CF9283
:10011000DF92EF92FF920F931F93CF93DF937C01B7
:10012000C62ED42EC8E0D0E000E810E098012E21C1
:100130003F21232B11F061E001C060E08C2D0E9473
:10014000CA031595079561E08D2D0E94CA0360E0F2
:100150008D2D0E94CA03219749F7DF91CF911F91FE
:100160000F91FF90EF90DF90CF900895CF9326E00E
:1001700040E855E260E070E08DE391E00E94E30426
:10018000C2E061E08C2F0E949103CF5FCA30C9F7B3
:10019000CF910895AF92BF92CF92DF92EF92FF92EC
:1001A0000F931F93CF93DF93C0913201D09133010E
:1001B000CE016AE070E00E9423068C01C03147E264
:1001C000D40724F0109233011092320120913201B1
:1001D000309133012115310509F047C061E080916C
:1001E00008010E94CA0340910401509105016091E9
:1001F00006017091070180910A0190910B010E9404
:1002000087004091040150910501609106017091B1
:10021000070180912001909121010E948700409167
:1002200004015091050160910601709107018091D0
:100230002001909121010E9487004091040150917A
:100240000501609106017091070180912001909154
:1002500021010E94870060E0809108010E94CA038A
:1002600068EE73E080E090E04DC1C9010197099705
:1002700088F561E0809108010E94CA034091040161
:10028000509105016091060170910701F801EE0F90
:10029000FF1FE65FFE4F808191810E9487004091A1
:1002A0000401509105016091060170910701809150
:1002B0002001909121010E948700409104015091FA
:1002C00005016091060170910701809120019091D4
:1002D0002101A6C08AE0E82EF12CCE01B7010E94D0
:1002E0002306CB01B7010E9423066C01C9010A97BE
:1002F0008A35910508F04DC061E0809108010E94A7
:10030000CA0340910401509105016091060170916A
:100310000701F801EE0FFF1FE65FFE4F808191811C
:100320000E948700409104015091050160910601EF
:1003300070910701F601EE0FFF1FE65FFE4F80810F
:1003400091810E94870040910401509105016091C4
:1003500006017091070180912001909121010E9476
:100360008700409104015091050160910601709150
:10037000070180912001909121010E94870060E097
:10038000809108010E94CA0364E670E080E090E07A
:10039000B9C0CE0164E670E00E942306CB01B7012C
:1003A0000E9423065C01C901845691098438934058
:1003B00008F045C061E0809108010E94CA034091A5
:1003C0000401509105016091060170910701F80147
:1003D000EE0FFF1FE65FFE4F808191810E94870034
:1003E000409104015091050160910601709107014F
:1003F000F601EE0FFF1FE65FFE4F808191810E94A4
:1004000087004091040150910501609106017091AF
:100410000701F501EE0FFF1FE65FFE4F808191811E
:100420000E948700409104015091050160910601EE
:1004300070910701809120019091210158C0285EA0
:1004400033402832334208F05FC061E080910801F8
:100450000E94CA0340910401509105016091060178
:1004600070910701F801EE0FFF1FE65FFE4F8081DC
:1004700091810E9487004091040150910501609193
:10048000060170910701F601EE0FFF1FE65FFE4FB8
:10049000808191810E948700409104015091050163
:1004A0006091060170910701F501EE0FFF1FE65FF5
:1004B000FE4F808191810E948700E0910401F091BC
:1004C00005012091060130910701CE0168EE73E02D
:1004D0000E942306CB01B7010E942306880F991FB3
:1004E000865F9E4FAF01B901FC01808191810E941E
:1004F000870060E0809108010E94CA036AE070E012
:1005000080E090E00E9405038091320190913301D8
:1005100001969093330180933201DF91CF911F9127
:100520000F91FF90EF90DF90CF90BF90AF90089524
:100530001F920F920FB60F9211242F933F938F9318
:100540009F93AF93BF938091350190913601A09115
:100550003701B09138013091340123E0230F2D375A
:1005600020F40196A11DB11D05C026E8230F0296B7
:10057000A11DB11D20933401809335019093360164
:10058000A0933701B09338018091390190913A01DD
:10059000A0913B01B0913C010196A11DB11D80933A
:1005A000390190933A01A0933B01B0933C01BF9174
:1005B000AF919F918F913F912F910F900FBE0F9010
:1005C0001F9018953FB7F8948091390190913A01A6
:1005D000A0913B01B0913C0126B5A89B05C02F3FDF
:1005E00019F00196A11DB11D3FBF6627782F892FF5
:1005F0009A2F620F711D811D911D42E0660F771FBA
:10060000881F991F4A95D1F70895CF92DF92EF92F4
:10061000FF92CF93DF936B017C010E94E202EB011A
:10062000C114D104E104F10489F00E9422060E9461
:10063000E2026C1B7D0B683E734090F381E0C81AA8
:10064000D108E108F108C851DC4FEACFDF91CF9122
:10065000FF90EF90DF90CF900895789484B58260FA
:1006600084BD84B5816084BD85B5826085BD85B556
:10067000816085BDEEE6F0E0808181608083E1E805
:10068000F0E010828081826080838081816080833D
:10069000E0E8F0E0808181608083E1EBF0E0808140
:1006A00084608083E0EBF0E0808181608083EAE712
:1006B000F0E080818460808380818260808380819B
:1006C000816080838081806880831092C10008955A
:1006D000833081F028F4813099F08230A1F00895C0
:1006E0008730A9F08830B9F08430D1F4809180004F
:1006F0008F7D03C0809180008F7780938000089564
:1007000084B58F7702C084B58F7D84BD08958091B4
:10071000B0008F7703C08091B0008F7D8093B000D0
:100720000895CF93DF9390E0FC01E458FF4F2491AC
:10073000FC01E057FF4F8491882349F190E0880F36
:10074000991FFC01E255FF4FA591B4918C559F4F25
:10075000FC01C591D4919FB7611108C0F8948C91A8
:10076000209582238C93888182230AC0623051F4C1
:10077000F8948C91322F309583238C938881822B2F
:10078000888304C0F8948C91822B8C939FBFDF9157
:10079000CF9108950F931F93CF93DF931F92CDB7FF
:1007A000DEB7282F30E0F901E859FF4F8491F901B5
:1007B000E458FF4F1491F901E057FF4F04910023D3
:1007C000C9F0882321F069830E9468036981E02FC2
:1007D000F0E0EE0FFF1FEC55FF4FA591B4919FB7CE
:1007E000F8948C91611103C01095812301C0812B75
:1007F0008C939FBF0F90DF91CF911F910F91089520
:10080000FC01818D228D90E0805C9F4F821B9109BD
:100810008F7399270895FC01918D828D981731F07F
:10082000828DE80FF11D858D90E008958FEF9FEF89
:100830000895FC01918D828D981761F0828DDF0102
:10084000A80FB11D5D968C91928D9F5F9F73928FC3
:1008500090E008958FEF9FEF08958DE995E0892B43
:1008600049F080E090E0892B29F00E949D058111DC
:100870000C9400000895FC01848DDF01A80FB11DC8
:10088000A35ABF4F2C91848D90E001968F739927C6
:10089000848FA689B7892C93A089B1898C918064B3
:1008A0008C93938D848D981306C00288F389E02D74
:1008B00080818F7D80830895CF93DF93EC01888DB5
:1008C0008823C9F0EA89FB89808185FD05C0A88954
:1008D000B9898C9186FD0FC00FB607FCF5CF8081DA
:1008E00085FFF2CFA889B9898C9185FFEDCFCE0124
:1008F0000E943B04E7CFDF91CF910895CF92DF9222
:10090000FF920F931F93CF93DF931F92CDB7DEB764
:100910006C0181E0D60158968C9358975B969C9118
:100920005B975C968C915C97981307C05096ED91FD
:10093000FC915197808185FD2EC0F601038D10E05A
:100940000F5F1F4F0F731127F02EF601848DF812E1
:1009500011C00FB607FCF9CFD6015096ED91FC916E
:100960005197808185FFF1CFC60169830E943B04C6
:100970006981EBCF838DE80FF11DE35AFF4F608350
:10098000D6015B960C935B975296ED91FC91539731
:10099000808180620CC0D6015696ED91FC915797EC
:1009A00060835096ED91FC915197808180648083A3
:1009B00081E090E00F90DF91CF911F910F91FF9018
:1009C000DF90CF900895BF92CF92DF92EF92FF9287
:1009D000CF93DF93EC016A017B01B22EE889F9899C
:1009E00082E08083411581EE580761057105A1F011
:1009F00060E079E08DE390E0A70196010E94370660
:100A00002150310941095109569547953795279548
:100A1000211580E1380798F0E889F989108260E8AB
:100A200074E88EE190E0A70196010E9437062150FC
:100A30003109410951095695479537952795EC8518
:100A4000FD853083EE85FF852083188EEC89FD8936
:100A5000B082EA89FB89808180618083EA89FB8991
:100A6000808188608083EA89FB89808180688083B7
:100A7000EA89FB8980818F7D8083DF91CF91FF9010
:100A8000EF90DF90CF90BF9008951F920F920FB616
:100A90000F9211242F938F939F93EF93FF93E091E5
:100AA0004D01F0914E018081E0915301F09154018C
:100AB00082FD12C09081809156018F5F8F732091CB
:100AC0005701821751F0E0915601F0E0E35CFE4FD0
:100AD000958F8093560101C08081FF91EF919F9186
:100AE0008F912F910F900FBE0F901F9018951F920E
:100AF0000F920FB60F9211242F933F934F935F9352
:100B00006F937F938F939F93AF93BF93EF93FF93D5
:100B10008DE391E00E943B04FF91EF91BF91AF9173
:100B20009F918F917F916F915F914F913F912F9105
:100B30000F900FBE0F901F9018958DE391E00E94CB
:100B4000000421E0892B09F420E0822F08951092FF
:100B5000400110923F0188EE93E0A0E0B0E0809366
:100B6000410190934201A0934301B093440186E276
:100B700091E090933E0180933D0185EC90E090934D
:100B80004A018093490184EC90E090934C0180935A
:100B90004B0180EC90E090934E0180934D0181ECED
:100BA00090E09093500180934F0182EC90E09093FD
:100BB00052018093510186EC90E090935401809310
:100BC0005301109256011092570110925801109241
:100BD0005901089508950E942D030E94EA050E947C
:100BE000B600CDE2D4E00E94CA002097E1F30E9453
:100BF0002D04F9CFCF92DF92EF92FF920F931F93C4
:100C0000CF93DF936C017A01EB01E60EF71E00E053
:100C100010E0CE15DF0561F06991D601ED91FC91F0
:100C20000190F081E02DC6010995080F191FF1CF41
:100C3000C801DF91CF911F910F91FF90EF90DF904E
:100C4000CF900895089597FB072E16F4009407D0CF
:100C500077FD09D00E94590607FC05D03EF4909517
:100C600081959F4F0895709561957F4F0895A1E2FA
:100C70001A2EAA1BBB1BFD010DC0AA1FBB1FEE1F16
:100C8000FF1FA217B307E407F50720F0A21BB30B61
:100C9000E40BF50B661F771F881F991F1A9469F7DD
:100CA00060957095809590959B01AC01BD01CF0139
:100CB0000895AA1BBB1B51E107C0AA1FBB1FA617A3
:100CC000B70710F0A61BB70B881F991F5A95A9F7F5
:100CD00080959095BC01CD010895EE0FFF1F059002
:0A0CE000F491E02D0994F894FFCF81
:100CEA0000000100020003000400FC006000DA00BA
:100CFA00F2006600B600BE00E000FE00F600020048
:100D0A000000000000007E04FA05000419040B0428
:020D1A005C0477
:00000001FF
